:100000000C9462000C948A000C948A000C948A0070
:100010000C948A000C948A000C948A000C948A0038
:100020000C948A000C948A000C948A000C948A0028
:100030000C948A000C948A000C948A000C948A0018
:100040000C9407050C948A000C948A000C948A0086
:100050000C948A000C948A000C948A000C948A00F8
:100060000C948A000C948A000000000024002700F1
:100070002A0000000000250028002B0000000000DE
:1000800023002600290004040404040404040202DA
:100090000202020203030303030301020408102007
:1000A0004080010204081020010204081020000012
:1000B0000007000201000003040600000000000029
:1000C00000005F0411241FBECFEFD8E0DEBFCDBF1C
:1000D00011E0A0E0B1E0ECEBFCE002C005900D9275
:1000E000AC30B107D9F712E0ACE0B1E001C01D922D
:1000F000A332B107E1F710E0C4ECD0E004C02297CE
:10010000FE010E945806C23CD107C9F70E940005B3
:100110000C945C060C9400000F931F93CF93DF9315
:100120008C01EB018AE060E00E9409068AE78EBD3F
:100130000DB407FEFDCF08C088818EBD0DB407FE4B
:10014000FDCF01501040219601151105A9F78AE055
:1001500061E00E940906DF91CF911F910F910895F0
:100160000F931F93CF93DF938C01EB018AE060E044
:100170000E9409068AE38EBD0DB407FEFDCF9801EB
:10018000FE0108C01EBC0DB407FEFDCF215030405B
:100190008EB5819321153105A9F7C00FD11F1882A3
:1001A0008AE061E00E940906DF91CF911F910F91D3
:1001B0000895FF920F931F93082F162FF42E8AE0B5
:1001C00060E00E9409061F71102B1EBD0DB407FED2
:1001D000FDCFFEBC0DB407FEFDCF8AE061E00E94BA
:1001E00009061F910F91FF9008951F93CF93DF93FE
:1001F000182FC82FD0E0C076D07080910C0190E00D
:10020000C817D90791F080EA6FE143E00E94D90056
:1002100085E0D595C7958A95E1F780E86FE14C2F89
:100220000E94D900107610930C01DF91CF911F919D
:1002300008950F931F93182F062F0E94F50080E456
:10024000612F402F0E94D9001F910F910895682FB0
:10025000677085E70E94190108950F931F93182F67
:10026000062F8AE060E00E940906802F8F71812BA3
:100270008EBD0DB407FEFDCF1EBC0DB407FEFDCF35
:1002800007FF04C01EBC0DB407FEFDCF8AE061E08D
:100290000E9409068EB51F910F9108951F93182F84
:1002A0000E94F50080E0612F0E942D011F910895AA
:1002B000EF92FF920F931F938C017B0182E06FEF0F
:1002C0000E94190183E069E10E941901602F6150C9
:1002D00086E00E94190198012150364E87E0632F75
:1002E0000E9419018AE760E040E00E94D900C8013D
:1002F000B7010E948C0080E86FE148E00E94D900BD
:100300008CE10E944E0181FF05C080EA6FE148E068
:100310000E94D9001F910F91FF90EF900895AF9226
:10032000BF92CF92DF92EF92FF920F931F93CF93E2
:10033000DF936C015B0189E30E944E01882319F46D
:10034000C0E0D0E05DC080E060910D010E94190125
:1003500060910E0181E00E9419018AE360E00E9431
:100360002D01082F10E010930E0100930D018AE378
:1003700060E00E942D01382F20E0202B312B30939C
:100380000E0120930D018AE360E00E942D01E82E0A
:100390008AE360E00E942D01F82E8AE360E00E946B
:1003A0002D01082F10E08AE360E00E942D01382F14
:1003B00020E0202B312B27FD03C0C0E0D0E011C08E
:1003C000CE2DD0E09F2D80E0C82BD92BC601019700
:1003D00024978C179D0708F4EC01CE01B5010E940B
:1003E000B0008CE060910D010E94190160910E0136
:1003F0008DE00E94190180E86EE140E40E94D9007E
:10040000CE01DF91CF911F910F91FF90EF90DF9080
:10041000CF90BF90AF9008950F931F93982F162FF2
:10042000072F84ED692F0E94190186ED612F0E942C
:10043000190187ED602F0E94190104C08FE090E040
:100440000E94A1058AEE0E944E0180FDF7CF1F9108
:100450000F9108950F931F938C018AE061E00E9431
:10046000E9058AE061E00E9409068BE061E00E94F4
:10047000E9058DE061E00E94E9058CE060E00E9402
:10048000E9058BE060E00E9409068DE060E00E94D3
:10049000090680E58CBD8DB581608DBD8FEF60E074
:1004A0004FEF0E94D90062E370E080E090E00E948C
:1004B000770510920E0110920D0188E060E00E9415
:1004C000190189E060E00E9419018CE060E00E945F
:1004D00019018DE060E00E9419018AE06EEF0E9430
:1004E00019018BE069E10E94190184E06FEF0E941D
:1004F000190185E069E10E94190186E06FEF0E9411
:10050000190187E06FE10E94190188E360EB0E9406
:10051000190188E26FE30E94190189E260E30E94F9
:10052000190180E369EF0E94190181E367EF0E94DE
:10053000190180EC6DE00E94190181EC60E00E94DD
:10054000190180E862EC42E30E94D90086EC62E186
:100550000E94190187EC6CE00E94190184EC62E1B1
:100560000E9419018AEC6CED0E9419018BEC65E088
:100570000E94190184EEF80160810E94190185EE44
:10058000F80161810E94190182EEF80162810E94E6
:10059000190183EEF80163810E94190180EEF801D0
:1005A00064810E94190181EEF80165810E941901A0
:1005B00080E160E071E00E940C028FE10E94F50092
:1005C00080E86BE140EC0E94D90080E86FE144E0F4
:1005D0000E94D9001F910F910895EF92FF920F93FF
:1005E0001F93CF93DF937C01413061F468507040DA
:1005F0009B0140E050E0685F7F4F2F5E3F4F4F4FC1
:100600005F4F12C0423029F020E030E040E050E07F
:100610000BC0685070409B0140E050E0685F7F4F26
:100620002A5F3F4F4F4F5F4FE7018B010FC0F881AB
:10063000E0E0898190E08E2B9F2BA0E0B0E0280FB6
:10064000391F4A1F5B1F22960250104002301105CD
:1006500070F7FB01EE7FEE0DFF1D60FF0DC0908176
:1006600080E0AA2797FDA095BA2F02C04070507075
:10067000280F391F4A1F5B1FCA01AA27BB270097F3
:10068000A105B10599F720953095C901DF91CF916A
:100690001F910F91FF90EF900895CF93DF93EC019E
:1006A0004093000120E030E0F901EB5EFE4FDB01FA
:1006B000A20FB31F8C9180832F5F3F4F24303105F1
:1006C00099F720E030E0F901E15FFE4FDE01A20F73
:1006D000B31F8C9180832F5F3F4F2630310599F7F0
:1006E000DF91CF910895FC0169327105B0F08485E6
:1006F000883099F48585863081F4DF019696E5E1AE
:10070000F1E09C918081981741F41196319681E037
:10071000E931F807B1F781E0089580E00895FC0120
:100720006A327105D0F084858830B9F485858823D4
:10073000A1F48685853489F4DF01E5E1F1E05E9678
:100740009C915E978081981741F41196319681E0D3
:10075000E931F807A1F781E0089580E008950F934B
:100760001F938C01FC01108E118E80E4848B158AFE
:10077000868BC8010E9664E170E040E00E94ED02B5
:10078000F801908F818F1F910F910895AC01FC01AA
:10079000A5E1B1E0828D868F8D91828F319681E0C7
:1007A000A931B807B9F7CA010E94AF0308950F93A2
:1007B0001F93CF93DF93EC018B01FC01AFE0B1E01D
:1007C000868180838D918683319681E0A531B8073B
:1007D000B9F7CE010E94C6031AA28CA1883F18F077
:1007E0008DA18F5F8DA38CA1885F8CA3C801BE01F2
:1007F0000E945801DF91CF911F910F910895CF93DF
:10080000DF93AC01EC012FE031E0FC01D9018681DE
:1008100080838D918683319681E0A531B807B9F741
:10082000FA01148A82E0858B8E8988A3F90181916F
:100830009F018E8B2196F1E025313F07A9F7FA0140
:100840007C96A5E1B1E0808182878D91819381E0E2
:10085000A931B807C1F78AE290E0BA010E945801B5
:10086000DF91CF9108950895CB01BA010E94D7037B
:100870000895CB01BA010E948F030895CB010E9415
:10088000FF030895CB01BA010E9473030895CB01C1
:10089000BA01422F0E944D030895CB01BA010E9474
:1008A0008F010895862FBA010E940C020895862FA9
:1008B0000E9427010895CB010E942A02089586E133
:1008C00092E00E943304089586E192E06AEF70E0BE
:1008D00049E151E00E944D04AC01909315028093D0
:1008E0001402009761F186E192E069E171E00E94F3
:1008F0004204882331F086E192E069E171E00E94D0
:100900003E04409114025091150286E192E069E1A3
:1009100071E00E943904882391F080913001813088
:1009200071F480913B01883051F440911402509150
:10093000150286E192E069E171E00E9434040895B5
:10094000EF92FF920F931F9306E112E081E0E82EF1
:1009500081E0F82EC801B7010E945B04C80162E083
:100960000E9457046AE070E080E090E00E94770502
:10097000C80164E140E858E00E94520464EF71E06D
:1009800080E090E00E947705C80164E140E959E009
:100990000E94520464EF71E080E090E00E947705CD
:1009A000C80164E140E858E00E94520464EF71E03D
:1009B00080E090E00E947705C80164E140E959E0D9
:1009C0000E94520464EF71E080E090E00E9477059D
:1009D000C80164E146E754E00E94520464E670E016
:1009E00080E090E00E947705C801B70147E051E040
:1009F00020E50E9447041F910F91FF90EF9008950A
:100A00000E94AF050E94A0040E946404FDCF1F92C3
:100A10000F920FB60F9211242F938F939F93AF9342
:100A2000BF938091170290911802A0911902B09182
:100A30001A020196A11DB11D80931702909318020E
:100A4000A0931902B0931A0280911B0290911C028C
:100A5000A0911D02B0911E028050904CAF4FBF4F2D
:100A600080931B0290931C02A0931D02B0931E0260
:100A700027C080911B0290911C02A0911D02B09191
:100A80001E0280589E43A040B04080931B0290936A
:100A90001C02A0931D02B0931E0280911F02909130
:100AA0002002A0912102B09122020196A11DB11D48
:100AB00080931F0290932002A0932102B093220200
:100AC00080911B0290911C02A0911D02B0911E0208
:100AD00081589E43A040B04060F6BF91AF919F9176
:100AE0008F912F910F900FBE0F901F901895EF923E
:100AF000FF920F931F937B018C018FB7F894409165
:100B00001F025091200260912102709122028FBF3A
:100B10002FB7F89480911F0290912002A09121029A
:100B2000B09122022FBF841B950BA60BB70BE816C2
:100B3000F9060A071B0760F71F910F91FF90EF90CE
:100B40000895019759F0FC01EE0FFF1FEE0FFF1FF4
:100B500032978FB7F8943197F1F78FBF0895789453
:100B600084B5826084BD84B5816084BD85B58260B2
:100B700085BD85B5816085BDEEE6F0E08081816050
:100B80008083E1E8F0E08081826080838081816001
:100B90008083E0E8F0E0808181608083E1EBF0E039
:100BA000808184608083E0EBF0E0808181608083DD
:100BB000EAE7F0E0808184608083808182608083C6
:100BC0008081816080838081806880831092C100F1
:100BD0000895282F30E0C90186569F4FFC0194915B
:100BE0002A573F4FF9018491882391F0E82FF0E0D4
:100BF000EE0FFF1FE859FF4FA591B491662329F42A
:100C00008C91909589238C9308958C91892B8C934A
:100C10000895482F50E0CA0182559F4FFC0124914E
:100C2000CA0186569F4FFC0194914A575F4FFA01C3
:100C300034913323D1F1222331F1233021F48091F7
:100C400080008F7705C0243031F4809180008F7D43
:100C50008093800018C0213019F484B58F7704C0C8
:100C6000223021F484B58F7D84BD0DC0263021F45F
:100C70008091B0008F7705C0273029F48091B000B3
:100C80008F7D8093B000E32FF0E0EE0FFF1FEE5852
:100C9000FF4FA591B491662329F48C9190958923F7
:100CA0008C9308958C91892B8C930895EE0FFF1FE0
:0C0CB0000590F491E02D0994F894FFCF1A
:0C0CBC0050545558100024C0A8010F002F
:00000001FF
