:100000000C94C3000C94EB000C94EB000C94EB00EC
:100010000C94EB000C94EB000C94EB000C94EB00B4
:100020000C94EB000C94EB000C94EB000C94EB00A4
:100030000C94EB000C94EB000C94EB000C94EB0094
:100040000C9461090C94EB000C94EB000C94EB0005
:100050000C94EB000C94EB000C94EB000C94EB0074
:100060000C94EB000C94EB00436F6E6E6563746947
:100070006F6E3A206B6565702D616C6976650D0A4F
:100080000D0A004B6565702D416C6976653A203329
:1000900030300D0A004163636570743A20746578EE
:1000A000742F68746D6C0D0A00557365722D41676D
:1000B000656E743A204156522065746865726E65AB
:1000C000740D0A00486F73743A203139322E31367C
:1000D000382E312E340D0A0020485454502F312E22
:1000E000300D0A00267374617475733D74656D700C
:1000F000657261747572652D00474554202F6574D3
:10010000686572736869656C645F6C6F672F736193
:1001100076652E7068703F7077643D7365637265B5
:100120007426636C69656E743D0000000000240055
:1001300027002A0000000000250028002B000000F6
:10014000000023002600290004040404040404041D
:100150000202020202020303030303030102040872
:100160001020408001020408102001020408102021
:100170000000000700020100000304060000000068
:1001800000000000F50511241FBECFEFD8E0DEBF50
:10019000CDBF11E0A0E0B1E0ECE5F6E102C00590D2
:1001A0000D92AC31B107D9F713E0ACE1B1E001C079
:1001B0001D92AF33B107E1F711E0C6E8D1E004C00A
:1001C0002297FE010E94280BC438D107C9F70E946C
:1001D0005A090C942C0B0C9400000F931F93CF938F
:1001E000DF938C01EB018AE060E00E94630A8AE7FA
:1001F0008EBD0DB407FEFDCF08C088818EBD0DB445
:1002000007FEFDCF01501040219601151105A9F7F9
:100210008AE061E00E94630ADF91CF911F910F9104
:1002200008950F931F93CF93DF938C01EB018AE026
:1002300060E00E94630A8AE38EBD0DB407FEFDCF25
:100240009801FE0108C01EBC0DB407FEFDCF215071
:1002500030408EB5819321153105A9F7C00FD11F0C
:1002600018828AE061E00E94630ADF91CF911F91BA
:100270000F910895FF920F931F93082F162FF42EBE
:100280008AE060E00E94630A1F71102B1EBD0DB44E
:1002900007FEFDCFFEBC0DB407FEFDCF8AE061E096
:1002A0000E94630A1F910F91FF9008951F93CF93AF
:1002B000DF93182FC82FD0E0C076D07080911C013A
:1002C00090E0C817D90791F080EA6FE143E00E94FF
:1002D0003A0185E0D595C7958A95E1F780E86FE109
:1002E0004C2F0E943A01107610931C01DF91CF91A0
:1002F0001F9108950F931F93182F062F0E945601E8
:1003000080E4612F402F0E943A011F910F910895C0
:10031000682F677085E70E947A0108950F931F93F5
:10032000182F062F8AE060E00E94630A802F8F71E9
:10033000812B8EBD0DB407FEFDCF1EBC0DB407FE94
:10034000FDCF07FF04C01EBC0DB407FEFDCF8AE041
:1003500061E00E94630A8EB51F910F9108951F936B
:10036000182F0E94560180E0612F0E948E011F917C
:100370000895EF92FF920F931F938C017B0182E00F
:100380006FEF0E947A0183E069E10E947A01602F99
:10039000615086E00E947A0198012150364E87E034
:1003A000632F0E947A018AE760E040E00E943A01F0
:1003B000C801B7010E94ED0080E86FE148E00E94AB
:1003C0003A018CE10E94AF0181FF05C080EA6FE134
:1003D00048E00E943A011F910F91FF90EF9008951D
:1003E000AF92BF92CF92DF92EF92FF920F931F9343
:1003F000CF93DF936C015B0189E30E94AF018823F7
:1004000019F4C0E0D0E05DC080E060911D010E9461
:100410007A0160911E0181E00E947A018AE360E026
:100420000E948E01082F10E010931E0100931D0101
:100430008AE360E00E948E01382F20E0202B312BD0
:1004400030931E0120931D018AE360E00E948E011B
:10045000E82E8AE360E00E948E01F82E8AE360E0D5
:100460000E948E01082F10E08AE360E00E948E0156
:10047000382F20E0202B312B27FD03C0C0E0D0E037
:1004800011C0CE2DD0E09F2D80E0C82BD92BC60106
:10049000019724978C179D0708F4EC01CE01B50154
:1004A0000E9411018CE060911D010E947A0160910F
:1004B0001E018DE00E947A0180E86EE140E40E9416
:1004C0003A01CE01DF91CF911F910F91FF90EF90F4
:1004D000DF90CF90BF90AF9008950F931F93982F08
:1004E000162F072F84ED692F0E947A0186ED612F68
:1004F0000E947A0187ED602F0E947A0104C08FE08C
:1005000090E00E94FB098AEE0E94AF0180FDF7CFC8
:100510001F910F9108950F931F938C018AE061E062
:100520000E94430A8AE061E00E94630A8BE061E076
:100530000E94430A8DE061E00E94430A8CE060E083
:100540000E94430A8BE060E00E94630A8DE060E055
:100550000E94630A80E58CBD8DB581608DBD8FEFF3
:1005600060E04FEF0E943A0162E370E080E090E0CB
:100570000E94D10910921E0110921D0188E060E0D6
:100580000E947A0189E060E00E947A018CE060E0DC
:100590000E947A018DE060E00E947A018AE06EEFAD
:1005A0000E947A018BE069E10E947A0184E06FEF9A
:1005B0000E947A0185E069E10E947A0186E06FEF8E
:1005C0000E947A0187E06FE10E947A0188E360EB84
:1005D0000E947A0188E26FE30E947A0189E260E377
:1005E0000E947A0180E369EF0E947A0181E367EF5C
:1005F0000E947A0180EC6DE00E947A0181EC60E05B
:100600000E947A0180E862EC42E30E943A0186ECA3
:1006100062E10E947A0187EC6CE00E947A0184EC2E
:1006200062E10E947A018AEC6CED0E947A018BEC07
:1006300065E00E947A0184EEF80160810E947A01EF
:1006400085EEF80161810E947A0182EEF8016281F3
:100650000E947A0183EEF80163810E947A0180EEA4
:10066000F80164810E947A0181EEF80165810E949F
:100670007A0180E160E071E00E946D028FE10E94EA
:10068000560180E86BE140EC0E943A0180E86FE19E
:1006900044E00E943A011F910F910895EF92FF925A
:1006A0000F931F93CF93DF937C01413061F4685027
:1006B00070409B0140E050E0685F7F4F2F5E3F4FEE
:1006C0004F4F5F4F12C0423029F020E030E040E051
:1006D00050E00BC0685070409B0140E050E0685F04
:1006E0007F4F2A5F3F4F4F4F5F4FE7018B010FC096
:1006F000F881E0E0898190E08E2B9F2BA0E0B0E0B4
:10070000280F391F4A1F5B1F2296025010400230EB
:10071000110570F7FB01EE7FEE0DFF1D60FF0DC0B0
:10072000908180E0AA2797FDA095BA2F02C0407063
:100730005070280F391F4A1F5B1FCA01AA27BB2709
:100740000097A105B10599F720953095C901DF9172
:10075000CF911F910F91FF90EF900895CF93DF936A
:10076000EC014093010120E030E0F901EB5DFE4F28
:10077000DB01A20FB31F8C9180832F5F3F4F24308A
:10078000310599F720E030E0F901E15EFE4FDE012E
:10079000A20FB31F8C9180832F5F3F4F263031050E
:1007A00099F7DF91CF910895FC016A327105D0F07D
:1007B00084858830B9F485858823A1F486858534BD
:1007C00089F4DF01E5E2F1E05E969C915E9780811D
:1007D000981741F41196319681E0E932F807A1F7B4
:1007E00081E0089580E008950F931F938C01FC0130
:1007F000108E118E80E4848B158A868BC8010E962C
:1008000064E170E040E00E944E03F801908F818F18
:100810001F910F910895CF93DF93DC0185E41E961D
:100820008C931E971F961C921F9750967C935097FF
:1008300051966C93519780910201909103015296C9
:100840009C93529753968C935397019690930301E0
:100850008093020154961C92549755961C9255977A
:1008600080E856968C93569786E057968C935797C8
:10087000ED0120E030E0FA01E20FF31F80818E8F5E
:10088000F901EB5DFE4F80818A8F2F5F3F4F2196EC
:100890002430310581F7CD010E94F403DF91CF911F
:1008A00008956A5C7F4FDC01A60FB71F6653704046
:1008B00003C08D936F5F7F4FFA014F5F5F4F84914D
:1008C0008823B9F7CB010895FC0184858830C9F4E9
:1008D00085858630B1F48489882399F485898230AE
:1008E00081F4DF019696E5E2F1E09C918081981712
:1008F00041F41196319681E0E932F807B1F781E0D1
:10090000089580E00895FC01908980E0218930E01D
:10091000282B392B2451304086A582958F7090E08A
:10092000880F991F880F991F281B390B37FF02C0AA
:1009300020E030E0C90108955F926F927F928F921C
:100940009F92AF92BF92CF92DF92EF92FF920F935E
:100950001F93DF93CF93CDB7DEB73C01522EF02E1D
:100960008501DC0120E030E0F401E20FF31F80811B
:100970008C93F901E15EFE4F808116968C93169759
:100980002F5F3F4F11962630310571F788E0F30154
:100990008487158674A365A352A343A3C114D1040D
:1009A00079F0B99634E08081A601480F511D248169
:1009B00044832083C52EDD2431503197332399F7AA
:1009C000FF20B9F0F30116A217A28091000180A7C1
:1009D00011A68E5F8093000182E086AB84E087AB36
:1009E00085E080AF80E881AF80E686A70C5F1F4F6F
:1009F00003C080E5F30186A7B801685D7F4FC3019E
:100A00004A895B890E940B04EE2029F0F30112A6AB
:100A100013A614A615A6F30112AA13AA57A682E0DC
:100A200080AB86E381AB14AA15AA045E1F4FC301F5
:100A30004A96B80142E00E944E03F30192AB83ABA9
:100A4000C8014A96B3010E94B901CF91DF911F916D
:100A50000F91FF90EF90DF90CF90BF90AF909F905D
:100A60008F907F906F905F9008950F931F93CF9317
:100A7000DF93DC018B01BC014FE151E0FC01EA0195
:100A80009FEF908389918683319681E0C532D807A4
:100A9000C1F798E01C969C931C9726E01D962C931A
:100AA0001D9754961C92549781E055968C935597B8
:100AB0001E961C921E971F968C931F9750969C9380
:100AC000509751961C92519752962C93529784E0CE
:100AD00053968C935397FB0110A2FA018191AF01B9
:100AE000FB01868B6F5F7F4FF1E045325F0799F71F
:100AF000ED016C9620E030E0F801E20FF31F8081F9
:100B00008A87F901EB5DFE4F808189932F5F3F4F0C
:100B10002430310589F78AE290E0BD010E94B901D5
:100B2000DF91CF911F910F9108950895CB010E94FD
:100B3000830408958F929F92AF92BF92CF92DF92DB
:100B4000EF920F93DF93CF93CDB7DEB7CB01EC2DB0
:100B50006501540100D06F857889ADB7BEB7129694
:100B60007C936E931197BA01A901202F0E2DEE2EC2
:100B70008D849E840E949C040F900F90CF91DF91F2
:100B80000F91EF90DF90CF90BF90AF909F908F909C
:100B90000895CB010E9464040895CB01BA010E941C
:100BA00035050895CB01BA010E94D4030895CB0105
:100BB000BA01422F0E94AE030895CB01BA010E94F0
:100BC000F0010895862FBA010E946D020895862FC4
:100BD0000E9488010895CB010E948B020895CB01E9
:100BE000BA01A9010E945104089583E391E00E9493
:100BF000950508950F931F93CF93DF93182F08E067
:100C0000C62FD0E060FF15C0812F60E00E94630A0C
:100C1000812F61E00E94430A85E090E00E94FB0979
:100C2000812F60E00E94430A8CE390E00E94FB0960
:100C300010C0812F60E00E94630A812F61E00E9452
:100C4000430A8CE390E00E94FB09812F60E00E9440
:100C5000430A015021F0D595C7956C2FD1CFDF9174
:100C6000CF911F910F9108951F93182F60E00E945C
:100C7000630A812F61E00E94430A84EF91E00E94A1
:100C8000FB09812F60E00E94430A84EF91E00E94FB
:100C9000FB091F910895EF92FF920F931F93F82E77
:100CA000EE248F2D60E00E94630A8F2D61E00E9488
:100CB000430A85E090E00E94FB098F2D60E00E94CE
:100CC000430A85E090E00E94FB098F2D0E94B00A44
:100CD000182F82E390E00E94FB09802F8695012F58
:100CE000079500270795082BE39488E0E816C9F6D6
:100CF000802F1F910F91FF90EF9008950F931F93F6
:100D0000CF93DF93EC0183E090E00E94340683E010
:100D100090E06CEC0E94FA0583E090E064E40E94AD
:100D2000FA0583E090E00E94340683E090E06CECEA
:100D30000E94FA0583E090E06EEB0E94FA0583E0E2
:100D400090E00E944B06182F83E090E00E944B0633
:100D5000382F20E0F901E10FF11D8F0100701078AC
:100D60000115110519F0F095E195FF4FCF0164E0F1
:100D700070E00E94FF0A9B01CF01880F991F8E0F20
:100D80009F1F880F991F280F391FC90164E670E063
:100D90000E94FF0A462FE72FC90164E670E00E9417
:100DA000FF0A9C01012B11F08DE201C08BE28883C8
:100DB000842F9E2F64E670E00E94FF0A6AE070E0D4
:100DC0000E94FF0A605D6983842F9E2F6AE070E0B5
:100DD0000E94FF0A805D8A838EE28B83C9016AE0EC
:100DE00070E00E94FF0A605D6C83C9016AE070E0F8
:100DF0000E94FF0A805D8D831E82DF91CF911F913B
:100E00000F910895CF93DF93EC0183E391E0BE014E
:100E100040E050E029EF30E00E94EF05C696DE0189
:100E2000A80FB91FC697AC0103C0ED934F5F5F4F8A
:100E3000E42FE81BF0E0EE5EFE4FE081EE23A9F721
:100E400083E391E0BE0124EE30E00E94EF05C696F8
:100E5000DE01A80FB91FC697AC0103C0ED934F5F29
:100E60005F4FE42FE81BF0E0E75DFE4FE081EE23EB
:100E7000A9F783E391E0BE0128ED30E00E94EF0581
:100E8000AC0183E391E0BE0124EC30E00E94EF0569
:100E9000AC0183E391E0BE0129EA30E00E94EF0556
:100EA000AC0183E391E0BE0125E930E00E94EF054B
:100EB000AC0183E391E0BE0123E830E00E94EF053E
:100EC000AC0183E391E0BE0128E630E00E94EF052B
:100ED000DF91CF9108954F925F926F927F928F92A0
:100EE0009F92AF92BF92CF92EF920F938091340175
:100EF000882309F44FC18091350190913601009704
:100F000079F483E391E067E371E044E051E00E940B
:100F1000CD0581E090E090933601809335013AC190
:100F2000019779F583E391E064EF71E047E351E0E5
:100F30000E94DD05892B79F083E391E067E371E09E
:100F40000E94C905882339F082E090E09093360131
:100F50008093350113C06AE070E080E090E00E9469
:100F6000D10980912C038F5F80932C03843649F440
:100F700010923601109235011092340110922C0318
:100F800009C180913501909136010297B9F5EDE3E1
:100F9000F1E0ADE2B3E081918D9381E0E334F807B5
:100FA000D1F700D000D03C978DE293E0ADB7BEB74B
:100FB00012969C938E93119784E091E014969C93E3
:100FC0008E93139783E391E0BF0140E550E020EB5F
:100FD00034E002E0EE24E394CC24C394AA24BB249E
:100FE000882499240E949A0583E090E0909336012A
:100FF000809335010F900F900F900F9080913501E5
:1010000090913601039709F0C5C083E391E064EF46
:1010100071E047E351E00E94DD05AC01009709F45F
:10102000B9C083E391E067E371E00E94D2058823B1
:1010300009F4B0C080916601823109F041C000D04E
:1010400000D0BDE26B2EB3E07B2EEDB7FEB772820F
:101050006182A4E04A2EA1E05A2E5482438283E3A7
:1010600091E067E371E040E550E020EB34E000E11F
:10107000EE24CC24E1E0AE2EB12C882499240E94E9
:101080009A050F900F900F900F9087E391E00E94C8
:1010900002074C0100D000D0ADB7BEB712967C92CB
:1010A0006E92119714965C924E92139783E391E09F
:1010B00067E371E040E550E020EB34E008E13BC03D
:1010C0008831F1F583E391E067E371E00E949605D2
:1010D0005C0100D000D0BDE24B2EB3E05B2EEDB73B
:1010E000FEB752824182A4E06A2EA1E07A2E748279
:1010F000638283E391E067E371E040E550E020EB39
:1011000034E000E1EE24CC24882499240E949A053E
:10111000ADB7BEB712965C924E92119714967C9220
:101120006E92139783E391E067E371E040E550E04E
:1011300020EB34E001E1AA24BB240E949A0526C0DA
:10114000813141F500D000D08DE293E0EDB7FEB7DC
:101150009283818384E091E09483838383E391E0AD
:1011600067E371E040E550E020EB34E000E1EE247D
:10117000CC24E1E0AE2EB12C882499240E949A055B
:101180001092360110923501109234010F900F9099
:101190000F900F900F91EF90CF90BF90AF909F90D6
:1011A0008F907F906F905F904F9008958091340161
:1011B000882369F460E67AEE80E090E00E94D1092D
:1011C00089E291E00E947E0681E0809334010E94D2
:1011D0006B070895EF92FF920F931F9303E311E0C3
:1011E00088E0E82E81E0F82EC801B7010E94EB05E7
:1011F000C80162E00E94E7056AE070E080E090E0EC
:101200000E94D109C80164E140E858E00E94E2056B
:1012100064EF71E080E090E00E94D109C80164E1D0
:1012200040E959E00E94E20564EF71E080E090E05F
:101230000E94D109C80164E140E858E00E94E2053B
:1012400064EF71E080E090E00E94D109C80164E1A0
:1012500040E959E00E94E20564EF71E080E090E02F
:101260000E94D109C80164E146E754E00E94E2050A
:1012700064E670E080E090E00E94D109C801B70107
:101280004EE051E020E50E94D70510922C03109209
:101290003401109236011092350183E060E00E9423
:1012A000630A83E060E00E94430A1F910F91FF9060
:1012B000EF9008950E94090A0E94EA080E94D60849
:1012C000FDCF1F920F920FB60F9211242F938F9381
:1012D0009F93AF93BF938091330390913403A09178
:1012E0003503B09136030196A11DB11D80933303E0
:1012F00090933403A0933503B09336038091370362
:1013000090913803A0913903B0913A038050904CEA
:10131000AF4FBF4F8093370390933803A0933903A7
:10132000B0933A0327C08091370390913803A0917E
:101330003903B0913A0380589E43A040B040809357
:10134000370390933803A0933903B0933A03809105
:101350003B0390913C03A0913D03B0913E03019665
:10136000A11DB11D80933B0390933C03A0933D03CB
:10137000B0933E038091370390913803A0913903D5
:10138000B0913A0381589E43A040B04060F6BF91AF
:10139000AF919F918F912F910F900FBE0F901F9043
:1013A0001895EF92FF920F931F937B018C018FB7DB
:1013B000F89440913B0350913C0360913D03709140
:1013C0003E038FBF2FB7F89480913B0390913C036D
:1013D000A0913D03B0913E032FBF841B950BA60B3C
:1013E000B70BE816F9060A071B0760F71F910F9164
:1013F000FF90EF900895019759F0FC01EE0FFF1F49
:10140000EE0FFF1F32978FB7F8943197F1F78FBF28
:101410000895789484B5826084BD84B5816084BD6C
:1014200085B5826085BD85B5816085BDEEE6F0E05D
:10143000808181608083E1E8F0E080818260808348
:10144000808181608083E0E8F0E08081816080833A
:10145000E1EBF0E0808184608083E0EBF0E080816C
:1014600081608083EAE7F0E080818460808380810E
:1014700082608083808181608083808180688083B6
:101480001092C1000895282F30E0C901845A9E4F60
:10149000FC019491285B3E4FF9018491882391F0DF
:1014A000E82FF0E0EE0FFF1FE65DFE4FA591B4912F
:1014B000662329F48C91909589238C9308958C91BF
:1014C000892B8C930895482F50E0CA0180599E4F74
:1014D000FC012491CA01845A9E4FFC019491485BFF
:1014E0005E4FFA0134913323D1F1222331F12330BD
:1014F00021F4809180008F7705C0243031F48091F1
:1015000080008F7D8093800018C0213019F484B54D
:101510008F7704C0223021F484B58F7D84BD0DC047
:10152000263021F48091B0008F7705C0273029F450
:101530008091B0008F7D8093B000E32FF0E0EE0F3C
:10154000FF1FEC5CFE4FA591B491662329F48C91AA
:10155000909589238C9308958C91892B8C93089571
:10156000682F70E0CB0180599E4FFC012491CB0184
:10157000845A9E4FFC014491685B7E4FFB0194911D
:10158000992319F420E030E038C0222331F12330D0
:1015900021F4809180008F7705C0243031F4809150
:1015A00080008F7D8093800018C0213019F484B5AD
:1015B0008F7704C0223021F484B58F7D84BD0DC0A7
:1015C000263021F48091B0008F7705C0273029F4B0
:1015D0008091B0008F7D8093B000892F90E0880FBC
:1015E000991F825C9E4FFC01A591B4918C9120E0E3
:1015F00030E0842311F021E030E0C901089597FB29
:10160000092E07260AD077FD04D00CD006D0002082
:101610001AF4709561957F4F0895F6F7909581952E
:101620009F4F0895AA1BBB1B51E107C0AA1FBB1FF8
:10163000A617B70710F0A61BB70B881F991F5A955E
:10164000A9F780959095BC01CD010895EE0FFF1F7D
:0C1650000590F491E02D0994F894FFCF70
:10165C000A5001000A0101035455581000240A01D4
:0C166C00015831302E312E312E3838005C
:00000001FF
