:100000000C9472010C949A010C949A010C949A012C
:100010000C949A010C949A010C949A010C949A01F4
:100020000C949A010C949A010C949A010C949A01E4
:100030000C949A010C949A010C949A010C949A01D4
:100040000C94C6080C949A010C949A010C949A0191
:100050000C949A010C949A010C949A010C949A01B4
:100060000C949A010C949A013C2F63656E7465722E
:100070003E3C68723E203C703E2056312E31203C82
:100080006120687265663D22687474703A2F2F771C
:1000900077772E6E75656C656374726F6E696373C6
:1000A0002E636F6D223E7777772E6E75656C656374
:1000B00074726F6E6963732E636F6D3C613E003CBA
:1000C000696E70757420747970653D7375626D69C1
:1000D000742076616C75653D22537769746368207E
:1000E0006F6E223E3C2F666F726D3E003C696E70F3
:1000F000757420747970653D68696464656E206EFE
:10010000616D653D636D642076616C75653D323E61
:10011000003C696E70757420747970653D7375620A
:100120006D69742076616C75653D225377697463DF
:1001300068206F6666223E3C2F666F726D3E003C03
:10014000696E70757420747970653D686964646562
:100150006E206E616D653D636D642076616C7565C2
:100160003D333E0020203C2F666F6E743E3C2F686E
:10017000313E3C62723E20004F4646004F4E003CEE
:1001800068313E3C666F6E7420636F6C6F723D2207
:1001900023303046463030223E20003C68323E203C
:1001A00052454D4F5445204C454420697320203C16
:1001B0002F68323E2000223E003C68723E3C627254
:1001C0003E3C666F726D204D4554484F443D676517
:1001D0007420616374696F6E3D22003C63656E74C8
:1001E00065723E3C703E3C68313E57656C636F6D96
:1001F0006520746F2041726475696E6F2045746864
:1002000065726E657420536869656C642056312E82
:100210003120203C2F68313E3C2F703E2000485456
:1002200054502F312E3020323030204F4B0D0A43A6
:100230006F6E74656E742D547970653A20746578AC
:10024000742F68746D6C0D0A0D0A00485454502FB9
:10025000312E3020323030204F4B0D0A436F6E74F8
:10026000656E742D547970653A20746578742F68C2
:10027000746D6C0D0A0D0A3C68313E323030204FEF
:100280004B3C2F68313E0000000000240027002A6C
:100290000000000000250028002B000000000023C3
:1002A00000260029000404040404040404020202D9
:1002B00002020203030303030301020408102040A7
:1002C0008001020408102001020408102000000030
:1002D0000700020100000304060000000000000007
:1002E00000000E0711241FBECFEFD8E0DEBFCDBF48
:1002F00011E0A0E0B1E0EAE3F4E102C005900D9264
:10030000AA32B107D9F713E0AAE2B1E001C01D9209
:10031000A435B107E1F712E0C4EED2E004C02297A1
:10032000FE010E94170AC23ED107C9F70E94BF080A
:100330000C941B0A0C940000FB01DC01415050405E
:1003400030F08D910190801919F40020B9F7881BC5
:10035000990B08950F931F93CF93DF938C01EB01BB
:100360008AE060E00E94C8098AE78EBD0DB407FEEE
:10037000FDCF08C088818EBD0DB407FEFDCF0150B2
:100380001040219601151105A9F78AE061E00E944D
:10039000C809DF91CF911F910F9108950F931F937B
:1003A000CF93DF938C01EB018AE060E00E94C809E3
:1003B0008AE38EBD0DB407FEFDCF9801FE0108C093
:1003C0001EBC0DB407FEFDCF215030408EB5819389
:1003D00021153105A9F7C00FD11F18828AE061E00D
:1003E0000E94C809DF91CF911F910F910895FF924C
:1003F0000F931F93082F162FF42E8AE060E00E94BF
:10040000C8091F71102B1EBD0DB407FEFDCFFEBC29
:100410000DB407FEFDCF8AE061E00E94C8091F917C
:100420000F91FF9008951F93CF93DF93182FC82F3C
:10043000D0E0C076D07080912A0190E0C817D9072B
:1004400091F080EA6FE143E00E94F70185E0D595E5
:10045000C7958A95E1F780E86FE14C2F0E94F7017C
:10046000107610932A01DF91CF911F9108950F9379
:100470001F93182F062F0E94130280E4612F402F34
:100480000E94F7011F910F910895682F677085E70B
:100490000E94370208950F931F93182F062F8AE0AA
:1004A00060E00E94C809802F8F71812B8EBD0DB432
:1004B00007FEFDCF1EBC0DB407FEFDCF07FF04C035
:1004C0001EBC0DB407FEFDCF8AE061E00E94C809A2
:1004D0008EB51F910F9108951F93182F0E9413023C
:1004E00080E0612F0E944B021F910895EF92FF92CE
:1004F0000F931F938C017B0182E06FEF0E94370204
:1005000083E069E10E943702602F615086E00E941B
:10051000370298012150364E87E0632F0E94370240
:100520008AE760E040E00E94F701C801B7010E943D
:10053000AA0180E86FE148E00E94F7018CE10E9487
:100540006C0281FF05C080EA6FE148E00E94F7017C
:100550001F910F91FF90EF900895AF92BF92CF92AD
:10056000DF92EF92FF920F931F93CF93DF936C0173
:100570005B0189E30E946C02882319F4C0E0D0E09B
:100580005DC080E060912B010E94370260912C01D8
:1005900081E00E9437028AE360E00E944B02082F4C
:1005A00010E010932C0100932B018AE360E00E947D
:1005B0004B02382F20E0202B312B30932C0120933D
:1005C0002B018AE360E00E944B02E82E8AE360E0A0
:1005D0000E944B02F82E8AE360E00E944B02082F33
:1005E00010E08AE360E00E944B02382F20E0202BCD
:1005F000312B27FD03C0C0E0D0E011C0CE2DD0E0EC
:100600009F2D80E0C82BD92BC601019724978C170A
:100610009D0708F4EC01CE01B5010E94CE018CE0EB
:1006200060912B010E94370260912C018DE00E94A5
:10063000370280E86EE140E40E94F701CE01DF91CD
:10064000CF911F910F91FF90EF90DF90CF90BF90CF
:10065000AF9008950F931F93982F162F072F84EDB7
:10066000692F0E94370286ED612F0E94370287EDC5
:10067000602F0E94370204C08FE090E00E94600962
:100680008AEE0E946C0280FDF7CF1F910F910895B2
:100690000F931F938C018AE061E00E94A8098AE011
:1006A00061E00E94C8098BE061E00E94A8098DE02A
:1006B00061E00E94A8098CE060E00E94A8098BE03C
:1006C00060E00E94C8098DE060E00E94C80980E5F2
:1006D0008CBD8DB581608DBD8FEF60E04FEF0E94C6
:1006E000F70162E370E080E090E00E94360910922A
:1006F0002C0110922B0188E060E00E94370289E013
:1007000060E00E9437028CE060E00E9437028DE0DA
:1007100060E00E9437028AE06EEF0E9437028BE0B1
:1007200069E10E94370284E06FEF0E94370285E0A2
:1007300069E10E94370286E06FEF0E94370287E08E
:100740006FE10E94370288E360EB0E94370288E283
:100750006FE30E94370289E260E30E94370280E380
:1007600069EF0E94370281E367EF0E94370280EC55
:100770006DE00E94370281EC60E00E94370280E861
:1007800062EC42E30E94F70186EC62E10E943702CC
:1007900087EC6CE00E94370284EC62E10E94370231
:1007A0008AEC6CED0E9437028BEC65E00E94370208
:1007B00084EEF80160810E94370285EEF8016181C4
:1007C0000E94370282EEF80162810E94370283EEB6
:1007D000F80163810E94370280EEF80164810E9473
:1007E000370281EEF80165810E94370280E160E006
:1007F00071E00E942A038FE10E94130280E86BE1FE
:1008000040EC0E94F70180E86FE144E00E94F701AC
:100810001F910F910895EF92FF920F931F93CF9323
:10082000DF937C01413061F4685070409B0140E0EF
:1008300050E0685F7F4F2F5E3F4F4F4F5F4F12C0BA
:10084000423029F020E030E040E050E00BC068503A
:1008500070409B0140E050E0685F7F4F2A5F3F4F50
:100860004F4F5F4FE7018B010FC0F881E0E08981B6
:1008700090E08E2B9F2BA0E0B0E0280F391F4A1F7D
:100880005B1F2296025010400230110570F7FB01E9
:10089000EE7FEE0DFF1D60FF0DC0908180E0AA2766
:1008A00097FDA095BA2F02C040705070280F391FD5
:1008B0004A1F5B1FCA01AA27BB270097A105B105E4
:1008C00099F720953095C901DF91CF911F910F9134
:1008D000FF90EF900895CF93DF93EC0140930D01CB
:1008E00020E030E0F901E95CFE4FDB01A20FB31F0D
:1008F0008C9180832F5F3F4F2430310599F720E0A2
:1009000030E0F901EF5CFE4FDE01A20FB31F8C91C6
:1009100080832F5F3F4F2630310599F7DF91CF91CC
:100920000895FC0169327105B0F08485883099F42E
:100930008585863081F4DF019696E7E3F1E09C91AE
:100940008081981741F41196319681E0EB33F807D6
:10095000B1F781E0089580E00895FC016A327105E5
:10096000D0F084858830B9F485858823A1F4868504
:10097000853489F4DF01E7E3F1E05E969C915E97B0
:100980008081981741F41196319681E0EB33F80796
:10099000A1F781E0089580E008950F931F938C01E3
:1009A000FC01108E118E80E4848B158A868BC80121
:1009B0000E9664E170E040E00E940B04F801908F15
:1009C000818F1F910F910895AC01FC01A7E3B1E065
:1009D000828D868F8D91828F319681E0AB33B807FF
:1009E000B9F7CA010E94CD040895FC0182A184A335
:1009F00012A283A185A313A280910D0183A3DF011D
:100A0000999694E08C91680F711D14968C911497AF
:100A100014966C931497222311F08C9301C01C92AE
:100A200091501197992319F0672F7727EBCF222345
:100A300049F416A217A280910C0180A711A68E5F1F
:100A400080930C0112AA13AA442351F082E086ABD2
:100A500084E087AB85E080AF80E881AF80E601C0AD
:100A600080E586A7089580912D0190912E01892B14
:100A700019F420E030E006C020912F0130913001C0
:100A80002E5D3F4FC9010895FC01908980E02189C6
:100A900030E0282B392B86A582958F7090E0880F47
:100AA000991F880F991F9093300180932F01245133
:100AB0003040281B390B30932E0120932D01121644
:100AC000130624F010922E0110922D0108956A5CF5
:100AD0007F4FDC01A60FB71F6653704003C08D9394
:100AE0006F5F7F4FFA014F5F5F4F84918823B9F7A3
:100AF000CB010895FA016A5C7F4FDC01A60FB71F96
:100B00006653704004C08D936F5F7F4F3196808134
:100B10008823C9F7CB010895EF92FF920F931F939B
:100B20008C017B0189E1F80187A7CB018896908B26
:100B3000818BC8010E94CD04F80112AA13AA8CE18E
:100B400090E0E80EF91EC8014A96B70142E00E9403
:100B50000B04F80192AB83ABC7014A96B8010E941F
:100B600076021F910F91FF90EF900895CF93DF933E
:100B7000EC01FC01A1E3B1E0868180838D91868345
:100B8000319681E0A733B807B9F780E18FA760916C
:100B90002D0170912E016115710521F4CE0161E0E6
:100BA00070E001C0CE0140E021E00E94F504188A07
:100BB00088E2898BCE010E94E404CE014A966CE162
:100BC00070E042E00E940B049AAB8BAB86E390E0AE
:100BD000BE010E947602DF91CF910895CF93DF93FB
:100BE000EC01FC01A1E3B1E0868180838D918683D5
:100BF000319681E0A733B807B9F7188A8CE2898B60
:100C0000CE010E94E40482E18FA7CE0161E070E092
:100C100041E020E00E94F504CE014A9660E270E0D7
:100C200042E00E940B049AAB8BAB8AE390E0BE01DA
:100C30000E947602DF91CF9108950F931F93CF9377
:100C4000DF93EC018B01FC01A1E3B1E0868180839D
:100C50008D918683319681E0A733B807B9F7CE012D
:100C60000E94E4041AA28CA1883F18F08DA18F5F26
:100C70008DA38CA1885F8CA3C801BE010E9476025F
:100C8000DF91CF911F910F910895CF93DF93AC0126
:100C9000EC0121E331E0FC01D901868180838D9153
:100CA0008683319681E0A733B807B9F7FA01148A31
:100CB00082E0858B8E8988A3F90181919F018E8BBB
:100CC0002196F1E027333F07A9F7FA017C96A7E3C5
:100CD000B1E0808182878D91819381E0AB33B80749
:100CE000C1F78AE290E0BA010E947602DF91CF91CB
:100CF00008950895CB01BA010E948C050895CB0197
:100D00000E94B60508950E9433050895CB010E9404
:100D100044050895CB010E94EE050895CB01BA0168
:100D20000E941D060895CB01BA010E94AD040895EA
:100D3000CB010E9445060895CB01BA010E9491049F
:100D40000895CB01BA01422F0E946B040895CB0194
:100D5000BA010E94AD020895862FBA010E942A03AB
:100D60000895862F0E9445020895CB010E944803F2
:100D70000895CB01BA01A9010E947A050895CB011B
:100D8000BA01A9010E9467050895CF93DF93EC0192
:100D9000FB0140E010C08081981759F431968081A2
:100DA000882341F4219688818D3319F4FB0141E0B9
:100DB00001C0FB0121969881992329F0903219F006
:100DC000442349F302C04130C1F49C2FACE3B1E0AD
:100DD00002C08D9321969E01291BE22F88818823D2
:100DE00041F0803231F0863221F031E0A235B30794
:100DF00081F7F0E0E45CFE4F1082842FDF91CF9109
:100E0000089560E071E00E94C506882329F0809172
:100E10003C0180538A3008F08FEF08958BE391E016
:100E20000E94790608951F93CF93DF93EC01162F4C
:100E30008BE391E0BE0140E050E02EE132E00E9401
:100E4000BF06AC018BE391E0BE012BED31E00E94C7
:100E5000BF06AC018BE391E0BE0129EB31E00E94BB
:100E6000BF06AC018BE391E0BE012EE031E00E94B1
:100E7000B906AC018BE391E0BE0126EB31E00E94A4
:100E8000BF06AC018BE391E0BE012BE931E00E948B
:100E9000BF06AC018BE391E0BE012FE731E00E9479
:100EA000BF06AC01112331F08BE391E0BE012CE7CA
:100EB00031E005C08BE391E0BE0128E731E00E94FC
:100EC000BF06AC018BE391E0BE0124E631E00E9455
:100ED000BF06AC01112371F08BE391E0BE012FE35B
:100EE00031E00E94BF06AC018BE391E0BE0121E13D
:100EF00031E00DC08BE391E0BE012CEE30E00E94AA
:100F0000BF06AC018BE391E0BE012FEB30E00E9405
:100F1000BF06AC018BE391E0BE0128E630E00E9401
:100F2000BF06DF91CF911F9108951F93CF93DF9359
:100F30008BE391E064EF71E043E551E00E94A70686
:100F4000EC01009709F4AFC08BE391E063E571E039
:100F5000AE010E949C06882339F08BE391E063E5A3
:100F600071E00E9498069FC08BE391E063E571E019
:100F7000AE010E949306882309F495C080916A010E
:100F8000813069F480917501883009F08CC08BE361
:100F900091E063E571E0AE010E948E0684C0863068
:100FA00009F081C080917701882309F07CC080918D
:100FB0007801803509F077C08091820181FF07C0F8
:100FC0008BE391E063E571E00E948A066CC084FFC8
:100FD0006AC08BE391E063E571E00E9486068BE3D3
:100FE00091E00E948306EC01009759F48091820100
:100FF00080FF59C08BE391E063E571E00E947F06BA
:1010000052C0BC016D5A7E4F84E091E044E050E054
:101010000E949C01009759F08BE391E063E571E039
:1010200040E050E02BE432E00E94BF062EC0BE013B
:10103000695A7E4F89E091E042E050E00E949C01B5
:10104000009721F483E591E061E01DC0CE01885A4C
:101050009E4F0E940107823029F484E060E00E94E4
:10106000C80902C0833011F011E005C084E061E0DE
:101070000E94C80910E083E591E0612F0E941307E8
:1010800083E591E0612F0E941307EC018BE391E06F
:1010900063E571E00E947F068BE391E063E571E018
:1010A000AE010E947A06DF91CF911F910895EF92D1
:1010B000FF920F931F930BE311E080E2E82E81E093
:1010C000F82EC801B7010E94B506C80162E00E946F
:1010D000B1066AE070E080E090E00E943609C80145
:1010E00064E140E858E00E94AC0664EF71E080E003
:1010F00090E00E943609C80164E140E959E00E948D
:10110000AC0664EF71E080E090E00E943609C8010F
:1011100064E140E858E00E94AC0664EF71E080E0D2
:1011200090E00E943609C80164E140E959E00E945C
:10113000AC0664EF71E080E090E00E943609C801DF
:1011400064E146E754E00E94AC0664E670E080E0AB
:1011500090E00E943609C801B70146E251E020E55F
:101160000E94A10684E061E00E94A80984E060E09A
:101170000E94C8091F910F91FF90EF9008950E945F
:101180006E090E9457080E949507FDCF1F920F928B
:101190000FB60F9211242F938F939F93AF93BF930A
:1011A0008091480390914903A0914A03B0914B0369
:1011B0000196A11DB11D8093480390934903A0930C
:1011C0004A03B0934B0380914C0390914D03A0913F
:1011D0004E03B0914F038050904CAF4FBF4F809360
:1011E0004C0390934D03A0934E03B0934F0327C03D
:1011F00080914C0390914D03A0914E03B0914F0309
:1012000080589E43A040B04080934C0390934D0380
:10121000A0934E03B0934F038091500390915103DC
:10122000A0915203B09153030196A11DB11D80936B
:10123000500390935103A0935203B09353038091B2
:101240004C0390914D03A0914E03B0914F038158F0
:101250009E43A040B04060F6BF91AF919F918F91A7
:101260002F910F900FBE0F901F901895EF92FF9245
:101270000F931F937B018C018FB7F894409150031B
:101280005091510360915203709153038FBF2FB758
:10129000F8948091500390915103A0915203B09122
:1012A00053032FBF841B950BA60BB70BE816F9064B
:1012B0000A071B0760F71F910F91FF90EF900895A9
:1012C000019759F0FC01EE0FFF1FEE0FFF1F329741
:1012D0008FB7F8943197F1F78FBF0895789484B55C
:1012E000826084BD84B5816084BD85B5826085BD22
:1012F00085B5816085BDEEE6F0E080818160808308
:10130000E1E8F0E080818260808380818160808379
:10131000E0E8F0E0808181608083E1EBF0E08081B3
:1013200084608083E0EBF0E0808181608083EAE785
:10133000F0E080818460808380818260808380810E
:10134000816080838081806880831092C1000895CD
:10135000282F30E0C90187549D4FFC0194912B55F3
:101360003D4FF9018491882391F0E82FF0E0EE0FD2
:10137000FF1FE957FD4FA591B491662329F48C9185
:10138000909589238C9308958C91892B8C93089543
:10139000482F50E0CA0183539D4FFC012491CA019C
:1013A00087549D4FFC0194914B555D4FFA01349148
:1013B0003323D1F1222331F1233021F480918000B5
:1013C0008F7705C0243031F4809180008F7D809329
:1013D000800018C0213019F484B58F7704C0223002
:1013E00021F484B58F7D84BD0DC0263021F4809119
:1013F000B0008F7705C0273029F48091B0008F7D31
:101400008093B000E32FF0E0EE0FFF1FEF56FD4F8B
:10141000A591B491662329F48C91909589238C939E
:1014200008958C91892B8C930895EE0FFF1F0590E2
:0A143000F491E02D0994F894FFCF29
:10143A00636D640047455420002F20000A506874E9
:10144A0074703A2F2F31302E312E312E34382F002E
:0A145A005455581000240A01013017
:00000001FF
